{
  "address": "0x26f51b1EA2eAB0B9e81Ec473Fb65320a86cF15A1",
  "abi": [
    {
      "inputs": [],
      "stateMutability": "nonpayable",
      "type": "constructor"
    },
    {
      "inputs": [
        {
          "internalType": "address",
          "name": "_currency",
          "type": "address"
        },
        {
          "internalType": "uint256",
          "name": "_minimum",
          "type": "uint256"
        }
      ],
      "name": "newPremiumPool",
      "outputs": [
        {
          "internalType": "address",
          "name": "",
          "type": "address"
        }
      ],
      "stateMutability": "nonpayable",
      "type": "function"
    }
  ],
  "transactionHash": "0x7c53753fcd1116837458917e2f280418c2c99721c6e04346c26a470a8ed81026",
  "args": [],
  "solcInputHash": "604ea37c2335432500405b2ce59f3005",
  "bytecode": "0x608060405234801561001057600080fd5b506109bb806100206000396000f3fe608060405234801561001057600080fd5b506004361061002b5760003560e01c8063b001e09a14610030575b600080fd5b61004361003e3660046100a9565b610059565b60405161005091906100df565b60405180910390f35b60008033848460405161006b9061009c565b610077939291906100f3565b604051809103906000f080158015610093573d6000803e3d6000fd5b50949350505050565b61086e8061011883390190565b600080604083850312156100bb578182fd5b82356001600160a01b03811681146100d1578283fd5b946020939093013593505050565b6001600160a01b0391909116815260200190565b6001600160a01b03938416815291909216602082015260408101919091526060019056fe608060405234801561001057600080fd5b5060405161086e38038061086e83398101604081905261002f91610083565b600080546001600160a01b039485166001600160a01b03199182161790915560048054939094169216919091179091556003556100be565b80516001600160a01b038116811461007e57600080fd5b919050565b600080600060608486031215610097578283fd5b6100a084610067565b92506100ae60208501610067565b9150604084015190509250925092565b6107a1806100cd6000396000f3fe608060405234801561001057600080fd5b50600436106100885760003560e01c80638f12167c1161005b5780638f12167c146100e6578063bcd84a71146100f9578063cfbff97d1461010c578063e5a6b10f1461011f57610088565b8063087d8d011461008d5780633f62327d146100ab5780636c91eaf0146100c057806376eb4a7a146100d3575b600080fd5b610095610134565b6040516100a2919061071d565b60405180910390f35b6100be6100b93660046105d3565b61013a565b005b6100956100ce36600461058e565b6101d7565b6100be6100e13660046105a8565b610226565b6100be6100f436600461052c565b6102d5565b6100be61010736600461058e565b610376565b61009561011a36600461058e565b6103dc565b6101276103f2565b6040516100a29190610635565b60035490565b6000546001600160a01b0316331461016d5760405162461bcd60e51b815260040161016490610699565b60405180910390fd5b61ffff821660009081526001602052604081208054839290610190908490610726565b925050819055508161ffff167fcbaed5fcfc493a166ff2613b47067c7daa5df612fb4bbc5582838d2acdc720fb826040516101cb919061071d565b60405180910390a25050565b61ffff8116600090815260026020526040812054156102095761ffff821660009081526002602052604090205461021e565b61ffff82166000908152600160205260409020545b90505b919050565b6000546001600160a01b031633146102505760405162461bcd60e51b815260040161016490610699565b61ffff83166000908152600160205260408120805483929061027390849061073e565b909155505060045461028f906001600160a01b03168383610401565b816001600160a01b03167f9ebd923e97d4ce72c1c254dcf6f6c9e2dff02701382ff17d7b0b6e8897c9aafb826040516102c8919061071d565b60405180910390a2505050565b6000546001600160a01b031633146102ff5760405162461bcd60e51b815260040161016490610699565b61ffff82166000908152600160205260409020548111156103325760405162461bcd60e51b815260040161016490610662565b61ffff82166000908152600160205260408120805483929061035590849061073e565b9091555050600454610371906001600160a01b03168483610401565b505050565b6000546001600160a01b031633146103a05760405162461bcd60e51b815260040161016490610699565b61ffff81166000908152600260205260409020546103d95761ffff81166000908152600160209081526040808320546002909252909120555b50565b61ffff1660009081526001602052604090205490565b6004546001600160a01b031681565b600080846001600160a01b031663a9059cbb8585604051602401610426929190610649565b6040516020818303038152906040529060e01b6020820180517bffffffffffffffffffffffffffffffffffffffffffffffffffffffff838183161783525050505060405161047491906105fc565b6000604051808303816000865af19150503d80600081146104b1576040519150601f19603f3d011682016040523d82523d6000602084013e6104b6565b606091505b50915091508180156104e05750805115806104e05750808060200190518101906104e09190610567565b6104fc5760405162461bcd60e51b8152600401610164906106d0565b5050505050565b80356001600160a01b038116811461022157600080fd5b803561ffff8116811461022157600080fd5b600080600060608486031215610540578283fd5b61054984610503565b92506105576020850161051a565b9150604084013590509250925092565b600060208284031215610578578081fd5b81518015158114610587578182fd5b9392505050565b60006020828403121561059f578081fd5b6105878261051a565b6000806000606084860312156105bc578283fd5b6105c58461051a565b925061055760208501610503565b600080604083850312156105e5578182fd5b6105ee8361051a565b946020939093013593505050565b60008251815b8181101561061c5760208186018101518583015201610602565b8181111561062a5782828501525b509190910192915050565b6001600160a01b0391909116815260200190565b6001600160a01b03929092168252602082015260400190565b6020808252601b908201527f556e6f52653a20496e73756666696369656e74205072656d69756d0000000000604082015260600190565b60208082526011908201527f556e6f52653a204e6f7420636f686f7274000000000000000000000000000000604082015260600190565b6020808252602d908201527f5472616e7366657248656c7065723a3a736166655472616e736665723a20747260408201526c185b9cd9995c8819985a5b1959609a1b606082015260800190565b90815260200190565b6000821982111561073957610739610755565b500190565b60008282101561075057610750610755565b500390565b634e487b7160e01b600052601160045260246000fdfea2646970667358221220d31378bb13cc8e6322cb9841b1bfdd64fd0d778860f71cc282e1529e7db417e164736f6c63430008000033a2646970667358221220bcc54ef27df8f0741f2ecc86812c2fd642e94c3bcaa43ff7f3c3a97ced682d1e64736f6c63430008000033",
  "devdoc": {
    "kind": "dev",
    "methods": {},
    "version": 1
  },
  "userdoc": {
    "kind": "user",
    "methods": {},
    "version": 1
  },
  "storageLayout": {
    "storage": [],
    "types": null
  }
}