{
  "address": "0x1F111b0E72954E32f79aE6c258FABa21FFf93B86",
  "abi": [
    {
      "inputs": [
        {
          "internalType": "address",
          "name": "_claimAssessor",
          "type": "address"
        }
      ],
      "stateMutability": "nonpayable",
      "type": "constructor"
    },
    {
      "anonymous": false,
      "inputs": [
        {
          "indexed": true,
          "internalType": "address",
          "name": "cohort",
          "type": "address"
        },
        {
          "indexed": true,
          "internalType": "address",
          "name": "owner",
          "type": "address"
        }
      ],
      "name": "CohortCreated",
      "type": "event"
    },
    {
      "anonymous": false,
      "inputs": [
        {
          "indexed": true,
          "internalType": "address",
          "name": "previousOwner",
          "type": "address"
        },
        {
          "indexed": true,
          "internalType": "address",
          "name": "newOwner",
          "type": "address"
        }
      ],
      "name": "OwnershipTransferred",
      "type": "event"
    },
    {
      "inputs": [
        {
          "internalType": "address",
          "name": "_creator",
          "type": "address"
        }
      ],
      "name": "addCohortCreator",
      "outputs": [],
      "stateMutability": "nonpayable",
      "type": "function"
    },
    {
      "inputs": [],
      "name": "claimAssessor",
      "outputs": [
        {
          "internalType": "address",
          "name": "",
          "type": "address"
        }
      ],
      "stateMutability": "view",
      "type": "function"
    },
    {
      "inputs": [],
      "name": "cohortCreateFee",
      "outputs": [
        {
          "internalType": "uint256",
          "name": "",
          "type": "uint256"
        }
      ],
      "stateMutability": "view",
      "type": "function"
    },
    {
      "inputs": [
        {
          "internalType": "uint256",
          "name": "",
          "type": "uint256"
        }
      ],
      "name": "cohortCreators",
      "outputs": [
        {
          "internalType": "address",
          "name": "",
          "type": "address"
        }
      ],
      "stateMutability": "view",
      "type": "function"
    },
    {
      "inputs": [],
      "name": "cohortCreatorsLength",
      "outputs": [
        {
          "internalType": "uint256",
          "name": "",
          "type": "uint256"
        }
      ],
      "stateMutability": "view",
      "type": "function"
    },
    {
      "inputs": [
        {
          "internalType": "address",
          "name": "_cohortFactory",
          "type": "address"
        },
        {
          "internalType": "string",
          "name": "_name",
          "type": "string"
        },
        {
          "internalType": "uint256",
          "name": "_cohortStartCapital",
          "type": "uint256"
        },
        {
          "internalType": "address",
          "name": "_premiumFactory",
          "type": "address"
        },
        {
          "internalType": "address",
          "name": "_premiumCurrency",
          "type": "address"
        },
        {
          "internalType": "uint256",
          "name": "_minPremium",
          "type": "uint256"
        }
      ],
      "name": "createCohort",
      "outputs": [
        {
          "internalType": "address",
          "name": "cohort",
          "type": "address"
        }
      ],
      "stateMutability": "payable",
      "type": "function"
    },
    {
      "inputs": [
        {
          "internalType": "address",
          "name": "_creator",
          "type": "address"
        }
      ],
      "name": "isCohortCreator",
      "outputs": [
        {
          "internalType": "bool",
          "name": "",
          "type": "bool"
        }
      ],
      "stateMutability": "view",
      "type": "function"
    },
    {
      "inputs": [],
      "name": "owner",
      "outputs": [
        {
          "internalType": "address",
          "name": "",
          "type": "address"
        }
      ],
      "stateMutability": "view",
      "type": "function"
    },
    {
      "inputs": [],
      "name": "renounceOwnership",
      "outputs": [],
      "stateMutability": "nonpayable",
      "type": "function"
    },
    {
      "inputs": [
        {
          "internalType": "uint256",
          "name": "_fee",
          "type": "uint256"
        }
      ],
      "name": "setCohortCreationFee",
      "outputs": [],
      "stateMutability": "nonpayable",
      "type": "function"
    },
    {
      "inputs": [
        {
          "internalType": "address",
          "name": "newOwner",
          "type": "address"
        }
      ],
      "name": "transferOwnership",
      "outputs": [],
      "stateMutability": "nonpayable",
      "type": "function"
    },
    {
      "inputs": [
        {
          "internalType": "address",
          "name": "_to",
          "type": "address"
        }
      ],
      "name": "withdrawCreateFee",
      "outputs": [],
      "stateMutability": "nonpayable",
      "type": "function"
    }
  ],
  "transactionHash": "0x0de26043cca4aa272212108decef3d5b59e5b2b2d4f7a0cd5c377bec57e45bbd",
  "args": [
    "0xbB4f1309F3ed7dEC28Ade42BA66c208211D5C56B"
  ],
  "solcInputHash": "94a65115cfde365a7a7507f331e4a479",
  "bytecode": "0x608060405234801561001057600080fd5b50604051610d9a380380610d9a83398101604081905261002f916100db565b60006100396100d7565b600080546001600160a01b0319166001600160a01b0383169081178255604051929350917f8be0079c531659141344cd1fd0a4f28419497f9722a3daafe3b4186f6b6457e0908290a3506001600160a01b0381166100b25760405162461bcd60e51b81526004016100a990610109565b60405180910390fd5b600180546001600160a01b0319166001600160a01b0392909216919091179055610140565b3390565b6000602082840312156100ec578081fd5b81516001600160a01b0381168114610102578182fd5b9392505050565b60208082526013908201527f556e6f52653a205a45524f5f4144445245535300000000000000000000000000604082015260600190565b610c4b8061014f6000396000f3fe6080604052600436106100c75760003560e01c80639fba341f11610074578063f17a87081161004e578063f17a8708146101e5578063f2fde38b146101fa578063f43dfbb71461021a576100c7565b80639fba341f1461019d578063ba69971f146101bd578063c6e89915146101d0576100c7565b80637565cac0116100a55780637565cac014610139578063779324ca146101665780638da5cb5b14610188576100c7565b806310b8f7a1146100cc5780636545cb14146100ee578063715018a614610124575b600080fd5b3480156100d857600080fd5b506100ec6100e7366004610917565b61023a565b005b3480156100fa57600080fd5b5061010e610109366004610917565b610287565b60405161011b919061094b565b60405180910390f35b34801561013057600080fd5b506100ec6102b1565b34801561014557600080fd5b506101596101543660046107f0565b61033a565b60405161011b91906109cb565b34801561017257600080fd5b5061017b6103e2565b60405161011b9190610b8a565b34801561019457600080fd5b5061010e6103e8565b3480156101a957600080fd5b506100ec6101b83660046107f0565b6103f7565b61010e6101cb36600461082f565b6104ae565b3480156101dc57600080fd5b5061010e61062e565b3480156101f157600080fd5b5061017b61063d565b34801561020657600080fd5b506100ec6102153660046107f0565b610643565b34801561022657600080fd5b506100ec6102353660046107f0565b610703565b61024261074f565b6001600160a01b03166102536103e8565b6001600160a01b0316146102825760405162461bcd60e51b815260040161027990610ab0565b60405180910390fd5b600355565b6002818154811061029757600080fd5b6000918252602090912001546001600160a01b0316905081565b6102b961074f565b6001600160a01b03166102ca6103e8565b6001600160a01b0316146102f05760405162461bcd60e51b815260040161027990610ab0565b600080546040516001600160a01b03909116907f8be0079c531659141344cd1fd0a4f28419497f9722a3daafe3b4186f6b6457e0908390a3600080546001600160a01b0319169055565b6000816001600160a01b031661034e6103e8565b6001600160a01b03161415610365575060016103dd565b60025460005b818110156103d657836001600160a01b03166002828154811061039e57634e487b7160e01b600052603260045260246000fd5b6000918252602090912001546001600160a01b031614156103c4576001925050506103dd565b806103ce81610bc3565b91505061036b565b5060009150505b919050565b60035481565b6000546001600160a01b031690565b6103ff61074f565b6001600160a01b03166104106103e8565b6001600160a01b0316146104365760405162461bcd60e51b815260040161027990610ab0565b61043f8161033a565b1561045c5760405162461bcd60e51b8152600401610279906109d6565b600280546001810182556000919091527f405787fa12a823e0f2b7631cc41b3ba8828b3321ca811111fa75cd3aa3bb5ace0180546001600160a01b0319166001600160a01b0392909216919091179055565b60006104b93361033a565b6104d55760405162461bcd60e51b815260040161027990610b1c565b336104de6103e8565b6001600160a01b031614806104f4575060035434145b6105105760405162461bcd60e51b815260040161027990610ae5565b6001600160a01b0384166105365760405162461bcd60e51b815260040161027990610b53565b6001600160a01b03831661055c5760405162461bcd60e51b815260040161027990610b53565b600154604051632e8ccbe960e21b81526001600160a01b03808a169263ba332fa4926105999233928c929116908b908b908b908b9060040161095f565b602060405180830381600087803b1580156105b357600080fd5b505af11580156105c7573d6000803e3d6000fd5b505050506040513d601f19601f820116820180604052508101906105eb9190610813565b60405190915033906001600160a01b038316907fa1f0bb63ca643e76f1e145f8aa769d29d169b2964c8b1e3b0f9807b334ed0cfb90600090a39695505050505050565b6001546001600160a01b031681565b60025490565b61064b61074f565b6001600160a01b031661065c6103e8565b6001600160a01b0316146106825760405162461bcd60e51b815260040161027990610ab0565b6001600160a01b0381166106a85760405162461bcd60e51b815260040161027990610a0d565b600080546040516001600160a01b03808516939216917f8be0079c531659141344cd1fd0a4f28419497f9722a3daafe3b4186f6b6457e091a3600080546001600160a01b0319166001600160a01b0392909216919091179055565b61070b61074f565b6001600160a01b031661071c6103e8565b6001600160a01b0316146107425760405162461bcd60e51b815260040161027990610ab0565b61074c8147610753565b50565b3390565b604080516000808252602082019092526001600160a01b03841690839060405161077d919061092f565b60006040518083038185875af1925050503d80600081146107ba576040519150601f19603f3d011682016040523d82523d6000602084013e6107bf565b606091505b50509050806107e05760405162461bcd60e51b815260040161027990610a53565b505050565b80356103dd81610c00565b600060208284031215610801578081fd5b813561080c81610c00565b9392505050565b600060208284031215610824578081fd5b815161080c81610c00565b60008060008060008060c08789031215610847578182fd5b863561085281610c00565b955060208781013567ffffffffffffffff8082111561086f578485fd5b818a0191508a601f830112610882578485fd5b81358181111561089457610894610bea565b604051601f8201601f19168101850183811182821017156108b7576108b7610bea565b60405281815283820185018d10156108cd578687fd5b81858501868301379081019093018590525090955050604087013593506108f6606088016107e5565b9250610904608088016107e5565b915060a087013590509295509295509295565b600060208284031215610928578081fd5b5035919050565b60008251610941818460208701610b93565b9190910192915050565b6001600160a01b0391909116815260200190565b60006001600160a01b03808a16835260e0602084015288518060e08501526101006109908282870160208e01610b93565b988216604085015260608401979097529485166080830152509190921660a082015260c0810191909152601f909101601f1916010192915050565b901515815260200190565b60208082526019908201527f556e6f52653a20416c7265616479207265676973746572656400000000000000604082015260600190565b60208082526026908201527f4f776e61626c653a206e6577206f776e657220697320746865207a65726f206160408201526564647265737360d01b606082015260800190565b60208082526034908201527f5472616e7366657248656c7065723a3a736166655472616e736665724554483a60408201527f20455448207472616e73666572206661696c6564000000000000000000000000606082015260800190565b6020808252818101527f4f776e61626c653a2063616c6c6572206973206e6f7420746865206f776e6572604082015260600190565b6020808252601d908201527f556e6f52653a20496e636f7272656374206372656174696f6e20666565000000604082015260600190565b60208082526010908201527f556e6f52653a20466f7262696464656e00000000000000000000000000000000604082015260600190565b60208082526013908201527f556e6f52653a205a45524f5f4144445245535300000000000000000000000000604082015260600190565b90815260200190565b60005b83811015610bae578181015183820152602001610b96565b83811115610bbd576000848401525b50505050565b6000600019821415610be357634e487b7160e01b81526011600452602481fd5b5060010190565b634e487b7160e01b600052604160045260246000fd5b6001600160a01b038116811461074c57600080fdfea26469706673582212204827188a6f135199f45150bbe1ff93c3966a3ddb89073090250517e45ec7b85e64736f6c63430008000033",
  "devdoc": {
    "kind": "dev",
    "methods": {
      "owner()": {
        "details": "Returns the address of the current owner."
      },
      "renounceOwnership()": {
        "details": "Leaves the contract without owner. It will not be possible to call `onlyOwner` functions anymore. Can only be called by the current owner. NOTE: Renouncing ownership will leave the contract without an owner, thereby removing any functionality that is only available to the owner."
      },
      "setCohortCreationFee(uint256)": {
        "details": "when setting fee, please consider ETH decimal(8)"
      },
      "transferOwnership(address)": {
        "details": "Transfers ownership of the contract to a new account (`newOwner`). Can only be called by the current owner."
      }
    },
    "version": 1
  },
  "userdoc": {
    "kind": "user",
    "methods": {},
    "version": 1
  },
  "storageLayout": {
    "storage": [
      {
        "astId": 7,
        "contract": "contracts/Actuary.sol:Actuary",
        "label": "_owner",
        "offset": 0,
        "slot": "0",
        "type": "t_address"
      },
      {
        "astId": 791,
        "contract": "contracts/Actuary.sol:Actuary",
        "label": "claimAssessor",
        "offset": 0,
        "slot": "1",
        "type": "t_address"
      },
      {
        "astId": 794,
        "contract": "contracts/Actuary.sol:Actuary",
        "label": "cohortCreators",
        "offset": 0,
        "slot": "2",
        "type": "t_array(t_address)dyn_storage"
      },
      {
        "astId": 796,
        "contract": "contracts/Actuary.sol:Actuary",
        "label": "cohortCreateFee",
        "offset": 0,
        "slot": "3",
        "type": "t_uint256"
      }
    ],
    "types": {
      "t_address": {
        "encoding": "inplace",
        "label": "address",
        "numberOfBytes": "20"
      },
      "t_array(t_address)dyn_storage": {
        "base": "t_address",
        "encoding": "dynamic_array",
        "label": "address[]",
        "numberOfBytes": "32"
      },
      "t_uint256": {
        "encoding": "inplace",
        "label": "uint256",
        "numberOfBytes": "32"
      }
    }
  }
}