{
  "address": "0xD459cb68E3d6c4dEB932C706Fa74D98a5d3578A3",
  "abi": [
    {
      "inputs": [],
      "stateMutability": "nonpayable",
      "type": "constructor"
    },
    {
      "anonymous": false,
      "inputs": [
        {
          "indexed": true,
          "internalType": "address",
          "name": "previousOwner",
          "type": "address"
        },
        {
          "indexed": true,
          "internalType": "address",
          "name": "newOwner",
          "type": "address"
        }
      ],
      "name": "OwnershipTransferred",
      "type": "event"
    },
    {
      "inputs": [],
      "name": "owner",
      "outputs": [
        {
          "internalType": "address",
          "name": "",
          "type": "address"
        }
      ],
      "stateMutability": "view",
      "type": "function"
    },
    {
      "inputs": [],
      "name": "renounceOwnership",
      "outputs": [],
      "stateMutability": "nonpayable",
      "type": "function"
    },
    {
      "inputs": [
        {
          "internalType": "address",
          "name": "_from",
          "type": "address"
        },
        {
          "internalType": "address",
          "name": "_cohort",
          "type": "address"
        },
        {
          "internalType": "uint256",
          "name": "_protocolIdx",
          "type": "uint256"
        },
        {
          "internalType": "uint256",
          "name": "_amount",
          "type": "uint256"
        }
      ],
      "name": "requestClaim",
      "outputs": [],
      "stateMutability": "nonpayable",
      "type": "function"
    },
    {
      "inputs": [
        {
          "internalType": "address",
          "name": "newOwner",
          "type": "address"
        }
      ],
      "name": "transferOwnership",
      "outputs": [],
      "stateMutability": "nonpayable",
      "type": "function"
    }
  ],
  "transactionHash": "0xfe3930cf8eddb718a574573a08717ac38a49a86cc25b3ccfd436fc77295c630c",
  "args": [],
  "solcInputHash": "5cabb2a55b314b9284c553a699dd7a5d",
  "bytecode": "0x608060405234801561001057600080fd5b50600061001b61006a565b600080546001600160a01b0319166001600160a01b0383169081178255604051929350917f8be0079c531659141344cd1fd0a4f28419497f9722a3daafe3b4186f6b6457e0908290a35061006e565b3390565b61046e8061007d6000396000f3fe608060405234801561001057600080fd5b506004361061004c5760003560e01c8063715018a6146100515780638cbf54891461005b5780638da5cb5b1461006e578063f2fde38b1461008c575b600080fd5b61005961009f565b005b610059610069366004610323565b61013e565b610076610206565b6040516100839190610384565b60405180910390f35b61005961009a366004610302565b610215565b6100a76102e2565b6001600160a01b03166100b8610206565b6001600160a01b0316146100e75760405162461bcd60e51b81526004016100de90610403565b60405180910390fd5b600080546040516001600160a01b03909116907f8be0079c531659141344cd1fd0a4f28419497f9722a3daafe3b4186f6b6457e0908390a36000805473ffffffffffffffffffffffffffffffffffffffff19169055565b6101466102e2565b6001600160a01b0316610157610206565b6001600160a01b03161461017d5760405162461bcd60e51b81526004016100de90610403565b60405163051f663760e11b81526001600160a01b03841690630a3ecc6e906101ad90879086908690600401610398565b602060405180830381600087803b1580156101c757600080fd5b505af11580156101db573d6000803e3d6000fd5b505050506040513d601f19601f820116820180604052508101906101ff9190610364565b5050505050565b6000546001600160a01b031690565b61021d6102e2565b6001600160a01b031661022e610206565b6001600160a01b0316146102545760405162461bcd60e51b81526004016100de90610403565b6001600160a01b03811661027a5760405162461bcd60e51b81526004016100de906103bd565b600080546040516001600160a01b03808516939216917f8be0079c531659141344cd1fd0a4f28419497f9722a3daafe3b4186f6b6457e091a36000805473ffffffffffffffffffffffffffffffffffffffff19166001600160a01b0392909216919091179055565b3390565b80356001600160a01b03811681146102fd57600080fd5b919050565b600060208284031215610313578081fd5b61031c826102e6565b9392505050565b60008060008060808587031215610338578283fd5b610341856102e6565b935061034f602086016102e6565b93969395505050506040820135916060013590565b600060208284031215610375578081fd5b8151801515811461031c578182fd5b6001600160a01b0391909116815260200190565b6001600160a01b0393909316835261ffff919091166020830152604082015260600190565b60208082526026908201527f4f776e61626c653a206e6577206f776e657220697320746865207a65726f206160408201526564647265737360d01b606082015260800190565b6020808252818101527f4f776e61626c653a2063616c6c6572206973206e6f7420746865206f776e657260408201526060019056fea2646970667358221220dd19c8e6ac70ecd9b8dfa9e7aa8ebf843af6687f8a82d649a0144dadeba7834c64736f6c63430008000033",
  "devdoc": {
    "kind": "dev",
    "methods": {
      "owner()": {
        "details": "Returns the address of the current owner."
      },
      "renounceOwnership()": {
        "details": "Leaves the contract without owner. It will not be possible to call `onlyOwner` functions anymore. Can only be called by the current owner. NOTE: Renouncing ownership will leave the contract without an owner, thereby removing any functionality that is only available to the owner."
      },
      "transferOwnership(address)": {
        "details": "Transfers ownership of the contract to a new account (`newOwner`). Can only be called by the current owner."
      }
    },
    "version": 1
  },
  "userdoc": {
    "kind": "user",
    "methods": {},
    "version": 1
  },
  "storageLayout": {
    "storage": [
      {
        "astId": 7,
        "contract": "contracts/ClaimAssessor.sol:ClaimAssessor",
        "label": "_owner",
        "offset": 0,
        "slot": "0",
        "type": "t_address"
      }
    ],
    "types": {
      "t_address": {
        "encoding": "inplace",
        "label": "address",
        "numberOfBytes": "20"
      }
    }
  }
}