{
  "address": "0x727832DD0D7F537bC2dE9319b8033b8A8bAfe081",
  "abi": [
    {
      "inputs": [],
      "stateMutability": "nonpayable",
      "type": "constructor"
    },
    {
      "inputs": [
        {
          "internalType": "string",
          "name": "_name",
          "type": "string"
        },
        {
          "internalType": "string",
          "name": "_symbol",
          "type": "string"
        },
        {
          "internalType": "address",
          "name": "_cohort",
          "type": "address"
        },
        {
          "internalType": "address",
          "name": "_currency",
          "type": "address"
        },
        {
          "internalType": "uint256",
          "name": "_APR",
          "type": "uint256"
        },
        {
          "internalType": "uint256",
          "name": "_maxSize",
          "type": "uint256"
        }
      ],
      "name": "newRiskPool",
      "outputs": [
        {
          "internalType": "address",
          "name": "",
          "type": "address"
        }
      ],
      "stateMutability": "nonpayable",
      "type": "function"
    }
  ],
  "transactionHash": "0x77da3ecde10c475d9d4ca2d4d02fd2eaefdb2d5cd4b08ea914839de29af2a470",
  "args": [],
  "solcInputHash": "5cabb2a55b314b9284c553a699dd7a5d",
  "bytecode": "0x608060405234801561001057600080fd5b50611714806100206000396000f3fe608060405234801561001057600080fd5b506004361061002b5760003560e01c80634f35e6d514610030575b600080fd5b61004361003e36600461011c565b610059565b60405161005091906101e7565b60405180910390f35b6000808989898989898989604051610070906100ac565b6100819897969594939291906101fb565b604051809103906000f08015801561009d573d6000803e3d6000fd5b509a9950505050505050505050565b61148b8061025483390190565b80356001600160a01b03811681146100d057600080fd5b919050565b60008083601f8401126100e6578182fd5b50813567ffffffffffffffff8111156100fd578182fd5b60208301915083602082850101111561011557600080fd5b9250929050565b60008060008060008060008060c0898b031215610137578384fd5b883567ffffffffffffffff8082111561014e578586fd5b61015a8c838d016100d5565b909a50985060208b0135915080821115610172578586fd5b5061017f8b828c016100d5565b9097509550610192905060408a016100b9565b93506101a060608a016100b9565b92506080890135915060a089013590509295985092959890939650565b60008284528282602086013780602084860101526020601f19601f85011685010190509392505050565b6001600160a01b0391909116815260200190565b600060c0825261020f60c083018a8c6101bd565b828103602084015261022281898b6101bd565b6001600160a01b03978816604085015295909616606083015250608081019290925260a0909101529594505050505056fe60806040523480156200001157600080fd5b506040516200148b3803806200148b833981016040819052620000349162000210565b855162000049906003906020890190620000a2565b5084516200005f906004906020880190620000a2565b50600580546001600160a01b039586166001600160a01b031991821617909155600680549490951693169290921790925560089190915560075550620003019050565b828054620000b090620002ae565b90600052602060002090601f016020900481019282620000d457600085556200011f565b82601f10620000ef57805160ff19168380011785556200011f565b828001600101855582156200011f579182015b828111156200011f57825182559160200191906001019062000102565b506200012d92915062000131565b5090565b5b808211156200012d576000815560010162000132565b80516001600160a01b03811681146200016057600080fd5b919050565b600082601f83011262000176578081fd5b81516001600160401b0380821115620001935762000193620002eb565b6040516020601f8401601f1916820181018381118382101715620001bb57620001bb620002eb565b6040528382528584018101871015620001d2578485fd5b8492505b83831015620001f55785830181015182840182015291820191620001d6565b838311156200020657848185840101525b5095945050505050565b60008060008060008060c0878903121562000229578182fd5b86516001600160401b038082111562000240578384fd5b6200024e8a838b0162000165565b9750602089015191508082111562000264578384fd5b506200027389828a0162000165565b955050620002846040880162000148565b9350620002946060880162000148565b92506080870151915060a087015190509295509295509295565b600281046001821680620002c357607f821691505b60208210811415620002e557634e487b7160e01b600052602260045260246000fd5b50919050565b634e487b7160e01b600052604160045260246000fd5b61117a80620003116000396000f3fe608060405234801561001057600080fd5b50600436106101165760003560e01c806370a08231116100a2578063a9059cbb11610071578063a9059cbb1461021c578063bd30558e1461022f578063bedf77a614610237578063dd62ed3e1461024a578063e5a6b10f1461025d57610116565b806370a08231146101db5780637e348b7d146101ee57806395d89b4114610201578063a457c2d71461020957610116565b806318160ddd116100e957806318160ddd1461018357806323b872dd146101985780632565b159146101ab578063313ce567146101b357806339509351146101c857610116565b806301e51e971461011b57806306fdde0314610130578063095ea7b31461014e57806313176a401461016e575b600080fd5b61012e610129366004610bf4565b610265565b005b6101386102b3565b6040516101459190610ca9565b60405180910390f35b61016161015c366004610bf4565b610341565b6040516101459190610c9e565b61017661035e565b6040516101459190610c71565b61018b61036d565b6040516101459190611042565b6101616101a6366004610bb9565b610373565b61018b610403565b6101bb610409565b604051610145919061104b565b6101616101d6366004610bf4565b61040e565b61018b6101e9366004610b66565b610462565b61012e6101fc366004610bf4565b610481565b6101386104b5565b610161610217366004610bf4565b6104c2565b61016161022a366004610bf4565b61053b565b61018b61054f565b61012e610245366004610b66565b610555565b61018b610258366004610b87565b610678565b6101766106a3565b6005546001600160a01b031633146102985760405162461bcd60e51b815260040161028f90610f8f565b60405180910390fd5b6006546102af906001600160a01b031683836106b2565b5050565b600380546102c0906110f3565b80601f01602080910402602001604051908101604052809291908181526020018280546102ec906110f3565b80156103395780601f1061030e57610100808354040283529160200191610339565b820191906000526020600020905b81548152906001019060200180831161031c57829003601f168201915b505050505081565b600061035561034e6107b4565b84846107b8565b50600192915050565b6005546001600160a01b031681565b60025490565b600061038084848461086c565b6001600160a01b0384166000908152600160205260408120816103a16107b4565b6001600160a01b03166001600160a01b03168152602001908152602001600020549050828110156103e45760405162461bcd60e51b815260040161028f90610e30565b6103f8856103f06107b4565b8584036107b8565b506001949350505050565b60075481565b601290565b600061035561041b6107b4565b8484600160006104296107b4565b6001600160a01b03908116825260208083019390935260409182016000908120918b168152925290205461045d9190611059565b6107b8565b6001600160a01b0381166000908152602081905260409020545b919050565b6005546001600160a01b031633146104ab5760405162461bcd60e51b815260040161028f90610f8f565b6102af8282610996565b600480546102c0906110f3565b600080600160006104d16107b4565b6001600160a01b039081168252602080830193909352604091820160009081209188168152925290205490508281101561051d5760405162461bcd60e51b815260040161028f90610fc6565b6105316105286107b4565b858584036107b8565b5060019392505050565b60006103556105486107b4565b848461086c565b60085481565b6005546001600160a01b0316331461057f5760405162461bcd60e51b815260040161028f90610f8f565b600061058961036d565b116105a65760405162461bcd60e51b815260040161028f90610de9565b6006546040516370a0823160e01b81526000916001600160a01b0316906370a08231906105d7903090600401610c71565b60206040518083038186803b1580156105ef57600080fd5b505afa158015610603573d6000803e3d6000fd5b505050506040513d601f19601f820116820180604052508101906106279190610c3d565b9050600061063361036d565b61063c84610462565b6106469084611091565b6106509190611071565b905061065c8382610a5e565b600654610673906001600160a01b031684836106b2565b505050565b6001600160a01b03918216600090815260016020908152604080832093909416825291909152205490565b6006546001600160a01b031681565b600080846001600160a01b031663a9059cbb85856040516024016106d7929190610c85565b6040516020818303038152906040529060e01b6020820180517bffffffffffffffffffffffffffffffffffffffffffffffffffffffff83818316178352505050506040516107259190610c55565b6000604051808303816000865af19150503d8060008114610762576040519150601f19603f3d011682016040523d82523d6000602084013e610767565b606091505b50915091508180156107915750805115806107915750808060200190518101906107919190610c1d565b6107ad5760405162461bcd60e51b815260040161028f90610f42565b5050505050565b3390565b6001600160a01b0383166107de5760405162461bcd60e51b815260040161028f90610efe565b6001600160a01b0382166108045760405162461bcd60e51b815260040161028f90610d61565b6001600160a01b0380841660008181526001602090815260408083209487168084529490915290819020849055517f8c5be1e5ebec7d5bd14f71427d1e84f3dd0314c0f7b2291e5b200ac8c7c3b9259061085f908590611042565b60405180910390a3505050565b6001600160a01b0383166108925760405162461bcd60e51b815260040161028f90610eb9565b6001600160a01b0382166108b85760405162461bcd60e51b815260040161028f90610cdc565b6108c3838383610673565b6001600160a01b038316600090815260208190526040902054818110156108fc5760405162461bcd60e51b815260040161028f90610da3565b6001600160a01b03808516600090815260208190526040808220858503905591851681529081208054849290610933908490611059565b92505081905550826001600160a01b0316846001600160a01b03167fddf252ad1be2c89b69c2b068fc378daa952ba7f163c4a11628f55a4df523b3ef8460405161097d9190611042565b60405180910390a3610990848484610673565b50505050565b6001600160a01b0382166109bc5760405162461bcd60e51b815260040161028f9061100b565b6109c860008383610673565b80600260008282546109da9190611059565b90915550506001600160a01b03821660009081526020819052604081208054839290610a07908490611059565b90915550506040516001600160a01b038316906000907fddf252ad1be2c89b69c2b068fc378daa952ba7f163c4a11628f55a4df523b3ef90610a4a908590611042565b60405180910390a36102af60008383610673565b6001600160a01b038216610a845760405162461bcd60e51b815260040161028f90610e78565b610a9082600083610673565b6001600160a01b03821660009081526020819052604090205481811015610ac95760405162461bcd60e51b815260040161028f90610d1f565b6001600160a01b0383166000908152602081905260408120838303905560028054849290610af89084906110b0565b90915550506040516000906001600160a01b038516907fddf252ad1be2c89b69c2b068fc378daa952ba7f163c4a11628f55a4df523b3ef90610b3b908690611042565b60405180910390a361067383600084610673565b80356001600160a01b038116811461047c57600080fd5b600060208284031215610b77578081fd5b610b8082610b4f565b9392505050565b60008060408385031215610b99578081fd5b610ba283610b4f565b9150610bb060208401610b4f565b90509250929050565b600080600060608486031215610bcd578081fd5b610bd684610b4f565b9250610be460208501610b4f565b9150604084013590509250925092565b60008060408385031215610c06578182fd5b610c0f83610b4f565b946020939093013593505050565b600060208284031215610c2e578081fd5b81518015158114610b80578182fd5b600060208284031215610c4e578081fd5b5051919050565b60008251610c678184602087016110c7565b9190910192915050565b6001600160a01b0391909116815260200190565b6001600160a01b03929092168252602082015260400190565b901515815260200190565b6000602082528251806020840152610cc88160408501602087016110c7565b601f01601f19169190910160400192915050565b60208082526023908201527f45524332303a207472616e7366657220746f20746865207a65726f206164647260408201526265737360e81b606082015260800190565b60208082526022908201527f45524332303a206275726e20616d6f756e7420657863656564732062616c616e604082015261636560f01b606082015260800190565b60208082526022908201527f45524332303a20617070726f766520746f20746865207a65726f206164647265604082015261737360f01b606082015260800190565b60208082526026908201527f45524332303a207472616e7366657220616d6f756e7420657863656564732062604082015265616c616e636560d01b606082015260800190565b60208082526027908201527f556e6f52653a2054686572652773206e6f2072656d61696e696e6720696e20746040820152661a19481c1bdbdb60ca1b606082015260800190565b60208082526028908201527f45524332303a207472616e7366657220616d6f756e74206578636565647320616040820152676c6c6f77616e636560c01b606082015260800190565b60208082526021908201527f45524332303a206275726e2066726f6d20746865207a65726f206164647265736040820152607360f81b606082015260800190565b60208082526025908201527f45524332303a207472616e736665722066726f6d20746865207a65726f206164604082015264647265737360d81b606082015260800190565b60208082526024908201527f45524332303a20617070726f76652066726f6d20746865207a65726f206164646040820152637265737360e01b606082015260800190565b6020808252602d908201527f5472616e7366657248656c7065723a3a736166655472616e736665723a20747260408201526c185b9cd9995c8819985a5b1959609a1b606082015260800190565b60208082526019908201527f556e6f52653a205269736b506f6f6c20466f7262696464656e00000000000000604082015260600190565b60208082526025908201527f45524332303a2064656372656173656420616c6c6f77616e63652062656c6f77604082015264207a65726f60d81b606082015260800190565b6020808252601f908201527f45524332303a206d696e7420746f20746865207a65726f206164647265737300604082015260600190565b90815260200190565b60ff91909116815260200190565b6000821982111561106c5761106c61112e565b500190565b60008261108c57634e487b7160e01b81526012600452602481fd5b500490565b60008160001904831182151516156110ab576110ab61112e565b500290565b6000828210156110c2576110c261112e565b500390565b60005b838110156110e25781810151838201526020016110ca565b838111156109905750506000910152565b60028104600182168061110757607f821691505b6020821081141561112857634e487b7160e01b600052602260045260246000fd5b50919050565b634e487b7160e01b600052601160045260246000fdfea264697066735822122002947dbdc398215bbab50fb73f8e4a29c55a97f42fba06ee4f680998725d5a0a64736f6c63430008000033a264697066735822122077bf9b1bdec1c2b9d06a0d04ec867c350a221aad6ef069f508b41541c21c266764736f6c63430008000033",
  "devdoc": {
    "kind": "dev",
    "methods": {},
    "version": 1
  },
  "userdoc": {
    "kind": "user",
    "methods": {},
    "version": 1
  },
  "storageLayout": {
    "storage": [],
    "types": null
  }
}